{
  "_format": "hh-sol-artifact-1",
  "contractName": "VCGNFT",
  "sourceName": "contracts/VCGNFT.sol",
  "abi": [
    {
      "inputs": [
        {
          "internalType": "string",
          "name": "name_",
          "type": "string"
        },
        {
          "internalType": "string",
          "name": "symbol_",
          "type": "string"
        }
      ],
      "stateMutability": "nonpayable",
      "type": "constructor"
    },
    {
      "anonymous": false,
      "inputs": [
        {
          "indexed": true,
          "internalType": "address",
          "name": "owner",
          "type": "address"
        },
        {
          "indexed": true,
          "internalType": "address",
          "name": "approved",
          "type": "address"
        },
        {
          "indexed": true,
          "internalType": "uint256",
          "name": "tokenId",
          "type": "uint256"
        }
      ],
      "name": "Approval",
      "type": "event"
    },
    {
      "anonymous": false,
      "inputs": [
        {
          "indexed": true,
          "internalType": "address",
          "name": "owner",
          "type": "address"
        },
        {
          "indexed": true,
          "internalType": "address",
          "name": "operator",
          "type": "address"
        },
        {
          "indexed": false,
          "internalType": "bool",
          "name": "approved",
          "type": "bool"
        }
      ],
      "name": "ApprovalForAll",
      "type": "event"
    },
    {
      "anonymous": false,
      "inputs": [
        {
          "indexed": true,
          "internalType": "address",
          "name": "previousOwner",
          "type": "address"
        },
        {
          "indexed": true,
          "internalType": "address",
          "name": "newOwner",
          "type": "address"
        }
      ],
      "name": "OwnershipTransferred",
      "type": "event"
    },
    {
      "anonymous": false,
      "inputs": [
        {
          "indexed": false,
          "internalType": "address",
          "name": "account",
          "type": "address"
        }
      ],
      "name": "Paused",
      "type": "event"
    },
    {
      "anonymous": false,
      "inputs": [
        {
          "indexed": true,
          "internalType": "address",
          "name": "from",
          "type": "address"
        },
        {
          "indexed": true,
          "internalType": "address",
          "name": "to",
          "type": "address"
        },
        {
          "indexed": true,
          "internalType": "uint256",
          "name": "tokenId",
          "type": "uint256"
        }
      ],
      "name": "Transfer",
      "type": "event"
    },
    {
      "anonymous": false,
      "inputs": [
        {
          "indexed": false,
          "internalType": "address",
          "name": "account",
          "type": "address"
        }
      ],
      "name": "Unpaused",
      "type": "event"
    },
    {
      "inputs": [
        {
          "internalType": "address",
          "name": "to",
          "type": "address"
        },
        {
          "internalType": "uint256",
          "name": "tokenId",
          "type": "uint256"
        }
      ],
      "name": "approve",
      "outputs": [],
      "stateMutability": "nonpayable",
      "type": "function"
    },
    {
      "inputs": [
        {
          "internalType": "address",
          "name": "owner",
          "type": "address"
        }
      ],
      "name": "balanceOf",
      "outputs": [
        {
          "internalType": "uint256",
          "name": "",
          "type": "uint256"
        }
      ],
      "stateMutability": "view",
      "type": "function"
    },
    {
      "inputs": [
        {
          "internalType": "uint256",
          "name": "tokenId",
          "type": "uint256"
        }
      ],
      "name": "burn",
      "outputs": [],
      "stateMutability": "nonpayable",
      "type": "function"
    },
    {
      "inputs": [
        {
          "internalType": "uint256",
          "name": "tokenId",
          "type": "uint256"
        }
      ],
      "name": "getApproved",
      "outputs": [
        {
          "internalType": "address",
          "name": "",
          "type": "address"
        }
      ],
      "stateMutability": "view",
      "type": "function"
    },
    {
      "inputs": [
        {
          "internalType": "address",
          "name": "owner",
          "type": "address"
        },
        {
          "internalType": "address",
          "name": "operator",
          "type": "address"
        }
      ],
      "name": "isApprovedForAll",
      "outputs": [
        {
          "internalType": "bool",
          "name": "",
          "type": "bool"
        }
      ],
      "stateMutability": "view",
      "type": "function"
    },
    {
      "inputs": [
        {
          "internalType": "address",
          "name": "to",
          "type": "address"
        }
      ],
      "name": "mint",
      "outputs": [],
      "stateMutability": "nonpayable",
      "type": "function"
    },
    {
      "inputs": [],
      "name": "name",
      "outputs": [
        {
          "internalType": "string",
          "name": "",
          "type": "string"
        }
      ],
      "stateMutability": "view",
      "type": "function"
    },
    {
      "inputs": [],
      "name": "owner",
      "outputs": [
        {
          "internalType": "address",
          "name": "",
          "type": "address"
        }
      ],
      "stateMutability": "view",
      "type": "function"
    },
    {
      "inputs": [
        {
          "internalType": "uint256",
          "name": "tokenId",
          "type": "uint256"
        }
      ],
      "name": "ownerOf",
      "outputs": [
        {
          "internalType": "address",
          "name": "",
          "type": "address"
        }
      ],
      "stateMutability": "view",
      "type": "function"
    },
    {
      "inputs": [],
      "name": "pause",
      "outputs": [],
      "stateMutability": "nonpayable",
      "type": "function"
    },
    {
      "inputs": [],
      "name": "paused",
      "outputs": [
        {
          "internalType": "bool",
          "name": "",
          "type": "bool"
        }
      ],
      "stateMutability": "view",
      "type": "function"
    },
    {
      "inputs": [],
      "name": "renounceOwnership",
      "outputs": [],
      "stateMutability": "nonpayable",
      "type": "function"
    },
    {
      "inputs": [
        {
          "internalType": "address",
          "name": "from",
          "type": "address"
        },
        {
          "internalType": "address",
          "name": "to",
          "type": "address"
        },
        {
          "internalType": "uint256",
          "name": "tokenId",
          "type": "uint256"
        }
      ],
      "name": "safeTransferFrom",
      "outputs": [],
      "stateMutability": "nonpayable",
      "type": "function"
    },
    {
      "inputs": [
        {
          "internalType": "address",
          "name": "from",
          "type": "address"
        },
        {
          "internalType": "address",
          "name": "to",
          "type": "address"
        },
        {
          "internalType": "uint256",
          "name": "tokenId",
          "type": "uint256"
        },
        {
          "internalType": "bytes",
          "name": "_data",
          "type": "bytes"
        }
      ],
      "name": "safeTransferFrom",
      "outputs": [],
      "stateMutability": "nonpayable",
      "type": "function"
    },
    {
      "inputs": [
        {
          "internalType": "address",
          "name": "operator",
          "type": "address"
        },
        {
          "internalType": "bool",
          "name": "approved",
          "type": "bool"
        }
      ],
      "name": "setApprovalForAll",
      "outputs": [],
      "stateMutability": "nonpayable",
      "type": "function"
    },
    {
      "inputs": [
        {
          "internalType": "string",
          "name": "newBaseTokenURI",
          "type": "string"
        }
      ],
      "name": "setBaseURI",
      "outputs": [],
      "stateMutability": "nonpayable",
      "type": "function"
    },
    {
      "inputs": [
        {
          "internalType": "uint256",
          "name": "tokenId",
          "type": "uint256"
        },
        {
          "internalType": "string",
          "name": "_tokenURI",
          "type": "string"
        }
      ],
      "name": "setTokenURI",
      "outputs": [],
      "stateMutability": "nonpayable",
      "type": "function"
    },
    {
      "inputs": [
        {
          "internalType": "bytes4",
          "name": "interfaceId",
          "type": "bytes4"
        }
      ],
      "name": "supportsInterface",
      "outputs": [
        {
          "internalType": "bool",
          "name": "",
          "type": "bool"
        }
      ],
      "stateMutability": "view",
      "type": "function"
    },
    {
      "inputs": [],
      "name": "symbol",
      "outputs": [
        {
          "internalType": "string",
          "name": "",
          "type": "string"
        }
      ],
      "stateMutability": "view",
      "type": "function"
    },
    {
      "inputs": [
        {
          "internalType": "uint256",
          "name": "index",
          "type": "uint256"
        }
      ],
      "name": "tokenByIndex",
      "outputs": [
        {
          "internalType": "uint256",
          "name": "",
          "type": "uint256"
        }
      ],
      "stateMutability": "view",
      "type": "function"
    },
    {
      "inputs": [
        {
          "internalType": "address",
          "name": "owner",
          "type": "address"
        },
        {
          "internalType": "uint256",
          "name": "index",
          "type": "uint256"
        }
      ],
      "name": "tokenOfOwnerByIndex",
      "outputs": [
        {
          "internalType": "uint256",
          "name": "",
          "type": "uint256"
        }
      ],
      "stateMutability": "view",
      "type": "function"
    },
    {
      "inputs": [
        {
          "internalType": "uint256",
          "name": "tokenId",
          "type": "uint256"
        }
      ],
      "name": "tokenURI",
      "outputs": [
        {
          "internalType": "string",
          "name": "",
          "type": "string"
        }
      ],
      "stateMutability": "view",
      "type": "function"
    },
    {
      "inputs": [],
      "name": "totalSupply",
      "outputs": [
        {
          "internalType": "uint256",
          "name": "",
          "type": "uint256"
        }
      ],
      "stateMutability": "view",
      "type": "function"
    },
    {
      "inputs": [
        {
          "internalType": "address",
          "name": "from",
          "type": "address"
        },
        {
          "internalType": "address",
          "name": "to",
          "type": "address"
        },
        {
          "internalType": "uint256",
          "name": "tokenId",
          "type": "uint256"
        }
      ],
      "name": "transferFrom",
      "outputs": [],
      "stateMutability": "nonpayable",
      "type": "function"
    },
    {
      "inputs": [
        {
          "internalType": "address",
          "name": "newOwner",
          "type": "address"
        }
      ],
      "name": "transferOwnership",
      "outputs": [],
      "stateMutability": "nonpayable",
      "type": "function"
    },
    {
      "inputs": [],
      "name": "unpause",
      "outputs": [],
      "stateMutability": "nonpayable",
      "type": "function"
    }
  ],
  "bytecode": "0x60806040523480156200001157600080fd5b506040516200279f3803806200279f83398101604081905262000034916200022f565b8151829082906200004d906000906020850190620000de565b50805162000063906001906020840190620000de565b5050600b805460ff191690555060006200007c620000da565b600b8054610100600160a81b0319166101006001600160a01b03841690810291909117909155604051919250906000907f8be0079c531659141344cd1fd0a4f28419497f9722a3daafe3b4186f6b6457e0908290a3505050620002e9565b3390565b828054620000ec9062000296565b90600052602060002090601f0160209004810192826200011057600085556200015b565b82601f106200012b57805160ff19168380011785556200015b565b828001600101855582156200015b579182015b828111156200015b5782518255916020019190600101906200013e565b50620001699291506200016d565b5090565b5b808211156200016957600081556001016200016e565b600082601f83011262000195578081fd5b81516001600160401b0380821115620001b257620001b2620002d3565b6040516020601f8401601f1916820181018381118382101715620001da57620001da620002d3565b6040528382528584018101871015620001f1578485fd5b8492505b83831015620002145785830181015182840182015291820191620001f5565b838311156200022557848185840101525b5095945050505050565b6000806040838503121562000242578182fd5b82516001600160401b038082111562000259578384fd5b620002678683870162000184565b935060208501519150808211156200027d578283fd5b506200028c8582860162000184565b9150509250929050565b600281046001821680620002ab57607f821691505b60208210811415620002cd57634e487b7160e01b600052602260045260246000fd5b50919050565b634e487b7160e01b600052604160045260246000fd5b6124a680620002f96000396000f3fe608060405234801561001057600080fd5b506004361061018e5760003560e01c80635c975abb116100de5780638da5cb5b11610097578063b88d4fde11610071578063b88d4fde1461031c578063c87b56dd1461032f578063e985e9c514610342578063f2fde38b146103555761018e565b80638da5cb5b146102f957806395d89b4114610301578063a22cb465146103095761018e565b80635c975abb146102a85780636352211e146102b05780636a627842146102c357806370a08231146102d6578063715018a6146102e95780638456cb59146102f15761018e565b806323b872dd1161014b57806342842e0e1161012557806342842e0e1461025c57806342966c681461026f5780634f6ccce71461028257806355f804b3146102955761018e565b806323b872dd1461022e5780632f745c59146102415780633f4ba83a146102545761018e565b806301ffc9a71461019357806306fdde03146101bc578063081812fc146101d1578063095ea7b3146101f1578063162094c41461020657806318160ddd14610219575b600080fd5b6101a66101a1366004611b4e565b610368565b6040516101b39190611cd4565b60405180910390f35b6101c461037b565b6040516101b39190611cdf565b6101e46101df366004611bc6565b61040d565b6040516101b39190611c83565b6102046101ff366004611b25565b610459565b005b610204610214366004611bde565b6104f1565b610221610570565b6040516101b39190612336565b61020461023c3660046119e4565b610576565b61022161024f366004611b25565b6105ae565b610204610600565b61020461026a3660046119e4565b610649565b61020461027d366004611bc6565b610664565b610221610290366004611bc6565b610697565b6102046102a3366004611b86565b6106f2565b6101a661073d565b6101e46102be366004611bc6565b610746565b6102046102d1366004611998565b61077b565b6102216102e4366004611998565b6107e0565b610204610824565b6102046108b3565b6101e46108fa565b6101c461090e565b610204610317366004611aeb565b61091d565b61020461032a366004611a1f565b6109eb565b6101c461033d366004611bc6565b610a2a565b6101a66103503660046119b2565b610a35565b610204610363366004611998565b610a63565b600061037382610b2f565b90505b919050565b60606000805461038a906123ae565b80601f01602080910402602001604051908101604052809291908181526020018280546103b6906123ae565b80156104035780601f106103d857610100808354040283529160200191610403565b820191906000526020600020905b8154815290600101906020018083116103e657829003601f168201915b5050505050905090565b600061041882610b54565b61043d5760405162461bcd60e51b8152600401610434906120ef565b60405180910390fd5b506000908152600460205260409020546001600160a01b031690565b600061046482610746565b9050806001600160a01b0316836001600160a01b031614156104985760405162461bcd60e51b815260040161043490612208565b806001600160a01b03166104aa610b71565b6001600160a01b031614806104c657506104c681610350610b71565b6104e25760405162461bcd60e51b815260040161043490611f2b565b6104ec8383610b75565b505050565b6104f9610b71565b6001600160a01b031661050a6108fa565b6001600160a01b0316146105305760405162461bcd60e51b81526004016104349061213b565b6104ec8383838080601f016020809104026020016040519081016040528093929190818152602001838380828437600092019190915250610be392505050565b60085490565b610587610581610b71565b82610c27565b6105a35760405162461bcd60e51b815260040161043490612249565b6104ec838383610cac565b60006105b9836107e0565b82106105d75760405162461bcd60e51b815260040161043490611d20565b506001600160a01b03919091166000908152600660209081526040808320938352929052205490565b610608610b71565b6001600160a01b03166106196108fa565b6001600160a01b03161461063f5760405162461bcd60e51b81526004016104349061213b565b610647610dd9565b565b6104ec838383604051806020016040528060008152506109eb565b61066f610581610b71565b61068b5760405162461bcd60e51b8152600401610434906122e6565b61069481610e47565b50565b60006106a1610570565b82106106bf5760405162461bcd60e51b81526004016104349061229a565b600882815481106106e057634e487b7160e01b600052603260045260246000fd5b90600052602060002001549050919050565b6106fa610b71565b6001600160a01b031661070b6108fa565b6001600160a01b0316146107315760405162461bcd60e51b81526004016104349061213b565b6104ec600d83836117f5565b600b5460ff1690565b6000818152600260205260408120546001600160a01b0316806103735760405162461bcd60e51b815260040161043490611fd2565b610783610b71565b6001600160a01b03166107946108fa565b6001600160a01b0316146107ba5760405162461bcd60e51b81526004016104349061213b565b6107c4600c610e50565b60006107d0600c610e59565b90506107dc8282610e5d565b5050565b60006001600160a01b0382166108085760405162461bcd60e51b815260040161043490611f88565b506001600160a01b031660009081526003602052604090205490565b61082c610b71565b6001600160a01b031661083d6108fa565b6001600160a01b0316146108635760405162461bcd60e51b81526004016104349061213b565b600b5460405160009161010090046001600160a01b0316907f8be0079c531659141344cd1fd0a4f28419497f9722a3daafe3b4186f6b6457e0908390a3600b8054610100600160a81b0319169055565b6108bb610b71565b6001600160a01b03166108cc6108fa565b6001600160a01b0316146108f25760405162461bcd60e51b81526004016104349061213b565b610647610e77565b600b5461010090046001600160a01b031690565b60606001805461038a906123ae565b610925610b71565b6001600160a01b0316826001600160a01b031614156109565760405162461bcd60e51b815260040161043490611e7e565b8060056000610963610b71565b6001600160a01b03908116825260208083019390935260409182016000908120918716808252919093529120805460ff1916921515929092179091556109a7610b71565b6001600160a01b03167f17307eab39ab6107e8899845ad3d59bd9653f200f220920489ca2b5937696c31836040516109df9190611cd4565b60405180910390a35050565b6109fc6109f6610b71565b83610c27565b610a185760405162461bcd60e51b815260040161043490612249565b610a2484848484610ed2565b50505050565b606061037382610f05565b6001600160a01b03918216600090815260056020908152604080832093909416825291909152205460ff1690565b610a6b610b71565b6001600160a01b0316610a7c6108fa565b6001600160a01b031614610aa25760405162461bcd60e51b81526004016104349061213b565b6001600160a01b038116610ac85760405162461bcd60e51b815260040161043490611dbd565b600b546040516001600160a01b0380841692610100900416907f8be0079c531659141344cd1fd0a4f28419497f9722a3daafe3b4186f6b6457e090600090a3600b80546001600160a01b0390921661010002610100600160a81b0319909216919091179055565b60006001600160e01b0319821663780e9d6360e01b148061037357506103738261101e565b6000908152600260205260409020546001600160a01b0316151590565b3390565b600081815260046020526040902080546001600160a01b0319166001600160a01b0384169081179091558190610baa82610746565b6001600160a01b03167f8c5be1e5ebec7d5bd14f71427d1e84f3dd0314c0f7b2291e5b200ac8c7c3b92560405160405180910390a45050565b610bec82610b54565b610c085760405162461bcd60e51b81526004016104349061201b565b6000828152600a6020908152604090912082516104ec92840190611879565b6000610c3282610b54565b610c4e5760405162461bcd60e51b815260040161043490611eb5565b6000610c5983610746565b9050806001600160a01b0316846001600160a01b03161480610c945750836001600160a01b0316610c898461040d565b6001600160a01b0316145b80610ca45750610ca48185610a35565b949350505050565b826001600160a01b0316610cbf82610746565b6001600160a01b031614610ce55760405162461bcd60e51b815260040161043490612170565b6001600160a01b038216610d0b5760405162461bcd60e51b815260040161043490611e3a565b610d1683838361105e565b610d21600082610b75565b6001600160a01b0383166000908152600360205260408120805460019290610d4a90849061236b565b90915550506001600160a01b0382166000908152600360205260408120805460019290610d7890849061233f565b909155505060008181526002602052604080822080546001600160a01b0319166001600160a01b0386811691821790925591518493918716917fddf252ad1be2c89b69c2b068fc378daa952ba7f163c4a11628f55a4df523b3ef91a4505050565b610de161073d565b610dfd5760405162461bcd60e51b815260040161043490611cf2565b600b805460ff191690557f5db9ee0a495bf2e6ff9c91a7834c1ba4fdd244a5e8aa4e537bd38aeae4b073aa610e30610b71565b604051610e3d9190611c83565b60405180910390a1565b6106948161108e565b80546001019055565b5490565b6107dc8282604051806020016040528060008152506110ce565b610e7f61073d565b15610e9c5760405162461bcd60e51b815260040161043490611f01565b600b805460ff191660011790557f62e78cea01bee320cd4e420270b5ea74000d11b0c9f74754ebdbfc544b05a258610e30610b71565b610edd848484610cac565b610ee984848484611101565b610a245760405162461bcd60e51b815260040161043490611d6b565b6060610f1082610b54565b610f2c5760405162461bcd60e51b81526004016104349061209e565b6000828152600a602052604081208054610f45906123ae565b80601f0160208091040260200160405190810160405280929190818152602001828054610f71906123ae565b8015610fbe5780601f10610f9357610100808354040283529160200191610fbe565b820191906000526020600020905b815481529060010190602001808311610fa157829003601f168201915b505050505090506000610fcf61121c565b9050805160001415610fe357509050610376565b815115611015578082604051602001610ffd929190611c54565b60405160208183030381529060405292505050610376565b610ca48461122b565b60006001600160e01b031982166380ac58cd60e01b148061104f57506001600160e01b03198216635b5e139f60e01b145b806103735750610373826112ae565b61106661073d565b156110835760405162461bcd60e51b815260040161043490611f01565b6104ec8383836112c7565b61109781611350565b6000818152600a6020526040902080546110b0906123ae565b159050610694576000818152600a60205260408120610694916118ed565b6110d883836113f7565b6110e56000848484611101565b6104ec5760405162461bcd60e51b815260040161043490611d6b565b6000611115846001600160a01b03166114d6565b1561121157836001600160a01b031663150b7a02611131610b71565b8786866040518563ffffffff1660e01b81526004016111539493929190611c97565b602060405180830381600087803b15801561116d57600080fd5b505af192505050801561119d575060408051601f3d908101601f1916820190925261119a91810190611b6a565b60015b6111f7573d8080156111cb576040519150601f19603f3d011682016040523d82523d6000602084013e6111d0565b606091505b5080516111ef5760405162461bcd60e51b815260040161043490611d6b565b805181602001fd5b6001600160e01b031916630a85bd0160e11b149050610ca4565b506001949350505050565b6060600d805461038a906123ae565b606061123682610b54565b6112525760405162461bcd60e51b8152600401610434906121b9565b600061125c61121c565b9050600081511161127c57604051806020016040528060008152506112a7565b80611286846114dc565b604051602001611297929190611c54565b6040516020818303038152906040525b9392505050565b6001600160e01b031981166301ffc9a760e01b14919050565b6112d28383836104ec565b6001600160a01b0383166112ee576112e9816115f7565b611311565b816001600160a01b0316836001600160a01b03161461131157611311838261163b565b6001600160a01b03821661132d57611328816116d8565b6104ec565b826001600160a01b0316826001600160a01b0316146104ec576104ec82826117b1565b600061135b82610746565b90506113698160008461105e565b611374600083610b75565b6001600160a01b038116600090815260036020526040812080546001929061139d90849061236b565b909155505060008281526002602052604080822080546001600160a01b0319169055518391906001600160a01b038416907fddf252ad1be2c89b69c2b068fc378daa952ba7f163c4a11628f55a4df523b3ef908390a45050565b6001600160a01b03821661141d5760405162461bcd60e51b815260040161043490612069565b61142681610b54565b156114435760405162461bcd60e51b815260040161043490611e03565b61144f6000838361105e565b6001600160a01b038216600090815260036020526040812080546001929061147890849061233f565b909155505060008181526002602052604080822080546001600160a01b0319166001600160a01b03861690811790915590518392907fddf252ad1be2c89b69c2b068fc378daa952ba7f163c4a11628f55a4df523b3ef908290a45050565b3b151590565b60608161150157506040805180820190915260018152600360fc1b6020820152610376565b8160005b811561152b5780611515816123e9565b91506115249050600a83612357565b9150611505565b60008167ffffffffffffffff81111561155457634e487b7160e01b600052604160045260246000fd5b6040519080825280601f01601f19166020018201604052801561157e576020820181803683370190505b5090505b8415610ca45761159360018361236b565b91506115a0600a86612404565b6115ab90603061233f565b60f81b8183815181106115ce57634e487b7160e01b600052603260045260246000fd5b60200101906001600160f81b031916908160001a9053506115f0600a86612357565b9450611582565b600880546000838152600960205260408120829055600182018355919091527ff3f7a9fe364faab93b216da50a3214154f22a0a2b415b23a84c8169e8b636ee30155565b60006001611648846107e0565b611652919061236b565b6000838152600760205260409020549091508082146116a5576001600160a01b03841660009081526006602090815260408083208584528252808320548484528184208190558352600790915290208190555b5060009182526007602090815260408084208490556001600160a01b039094168352600681528383209183525290812055565b6008546000906116ea9060019061236b565b6000838152600960205260408120546008805493945090928490811061172057634e487b7160e01b600052603260045260246000fd5b90600052602060002001549050806008838154811061174f57634e487b7160e01b600052603260045260246000fd5b600091825260208083209091019290925582815260099091526040808220849055858252812055600880548061179557634e487b7160e01b600052603160045260246000fd5b6001900381819060005260206000200160009055905550505050565b60006117bc836107e0565b6001600160a01b039093166000908152600660209081526040808320868452825280832085905593825260079052919091209190915550565b828054611801906123ae565b90600052602060002090601f0160209004810192826118235760008555611869565b82601f1061183c5782800160ff19823516178555611869565b82800160010185558215611869579182015b8281111561186957823582559160200191906001019061184e565b50611875929150611925565b5090565b828054611885906123ae565b90600052602060002090601f0160209004810192826118a75760008555611869565b82601f106118c057805160ff1916838001178555611869565b82800160010185558215611869579182015b828111156118695782518255916020019190600101906118d2565b5080546118f9906123ae565b6000825580601f1061190b5750610694565b601f01602090049060005260206000209081019061069491905b5b808211156118755760008155600101611926565b80356001600160a01b038116811461037657600080fd5b60008083601f840112611962578182fd5b50813567ffffffffffffffff811115611979578182fd5b60208301915083602082850101111561199157600080fd5b9250929050565b6000602082840312156119a9578081fd5b6112a78261193a565b600080604083850312156119c4578081fd5b6119cd8361193a565b91506119db6020840161193a565b90509250929050565b6000806000606084860312156119f8578081fd5b611a018461193a565b9250611a0f6020850161193a565b9150604084013590509250925092565b60008060008060808587031215611a34578081fd5b611a3d8561193a565b93506020611a4c81870161193a565b935060408601359250606086013567ffffffffffffffff80821115611a6f578384fd5b818801915088601f830112611a82578384fd5b813581811115611a9457611a94612444565b604051601f8201601f1916810185018381118282101715611ab757611ab7612444565b60405281815283820185018b1015611acd578586fd5b81858501868301379081019093019390935250939692955090935050565b60008060408385031215611afd578182fd5b611b068361193a565b915060208301358015158114611b1a578182fd5b809150509250929050565b60008060408385031215611b37578182fd5b611b408361193a565b946020939093013593505050565b600060208284031215611b5f578081fd5b81356112a78161245a565b600060208284031215611b7b578081fd5b81516112a78161245a565b60008060208385031215611b98578182fd5b823567ffffffffffffffff811115611bae578283fd5b611bba85828601611951565b90969095509350505050565b600060208284031215611bd7578081fd5b5035919050565b600080600060408486031215611bf2578283fd5b83359250602084013567ffffffffffffffff811115611c0f578283fd5b611c1b86828701611951565b9497909650939450505050565b60008151808452611c40816020860160208601612382565b601f01601f19169290920160200192915050565b60008351611c66818460208801612382565b835190830190611c7a818360208801612382565b01949350505050565b6001600160a01b0391909116815260200190565b6001600160a01b0385811682528416602082015260408101839052608060608201819052600090611cca90830184611c28565b9695505050505050565b901515815260200190565b6000602082526112a76020830184611c28565b60208082526014908201527314185d5cd8589b194e881b9bdd081c185d5cd95960621b604082015260600190565b6020808252602b908201527f455243373231456e756d657261626c653a206f776e657220696e646578206f7560408201526a74206f6620626f756e647360a81b606082015260800190565b60208082526032908201527f4552433732313a207472616e7366657220746f206e6f6e20455243373231526560408201527131b2b4bb32b91034b6b83632b6b2b73a32b960711b606082015260800190565b60208082526026908201527f4f776e61626c653a206e6577206f776e657220697320746865207a65726f206160408201526564647265737360d01b606082015260800190565b6020808252601c908201527f4552433732313a20746f6b656e20616c7265616479206d696e74656400000000604082015260600190565b60208082526024908201527f4552433732313a207472616e7366657220746f20746865207a65726f206164646040820152637265737360e01b606082015260800190565b60208082526019908201527f4552433732313a20617070726f766520746f2063616c6c657200000000000000604082015260600190565b6020808252602c908201527f4552433732313a206f70657261746f7220717565727920666f72206e6f6e657860408201526b34b9ba32b73a103a37b5b2b760a11b606082015260800190565b60208082526010908201526f14185d5cd8589b194e881c185d5cd95960821b604082015260600190565b60208082526038908201527f4552433732313a20617070726f76652063616c6c6572206973206e6f74206f7760408201527f6e6572206e6f7220617070726f76656420666f7220616c6c0000000000000000606082015260800190565b6020808252602a908201527f4552433732313a2062616c616e636520717565727920666f7220746865207a65604082015269726f206164647265737360b01b606082015260800190565b60208082526029908201527f4552433732313a206f776e657220717565727920666f72206e6f6e657869737460408201526832b73a103a37b5b2b760b91b606082015260800190565b6020808252602e908201527f45524337323155524953746f726167653a2055524920736574206f66206e6f6e60408201526d32bc34b9ba32b73a103a37b5b2b760911b606082015260800190565b6020808252818101527f4552433732313a206d696e7420746f20746865207a65726f2061646472657373604082015260600190565b60208082526031908201527f45524337323155524953746f726167653a2055524920717565727920666f72206040820152703737b732bc34b9ba32b73a103a37b5b2b760791b606082015260800190565b6020808252602c908201527f4552433732313a20617070726f76656420717565727920666f72206e6f6e657860408201526b34b9ba32b73a103a37b5b2b760a11b606082015260800190565b6020808252818101527f4f776e61626c653a2063616c6c6572206973206e6f7420746865206f776e6572604082015260600190565b60208082526029908201527f4552433732313a207472616e73666572206f6620746f6b656e2074686174206960408201526839903737ba1037bbb760b91b606082015260800190565b6020808252602f908201527f4552433732314d657461646174613a2055524920717565727920666f72206e6f60408201526e3732bc34b9ba32b73a103a37b5b2b760891b606082015260800190565b60208082526021908201527f4552433732313a20617070726f76616c20746f2063757272656e74206f776e656040820152603960f91b606082015260800190565b60208082526031908201527f4552433732313a207472616e736665722063616c6c6572206973206e6f74206f6040820152701ddb995c881b9bdc88185c1c1c9bdd9959607a1b606082015260800190565b6020808252602c908201527f455243373231456e756d657261626c653a20676c6f62616c20696e646578206f60408201526b7574206f6620626f756e647360a01b606082015260800190565b60208082526030908201527f4552433732314275726e61626c653a2063616c6c6572206973206e6f74206f7760408201526f1b995c881b9bdc88185c1c1c9bdd995960821b606082015260800190565b90815260200190565b6000821982111561235257612352612418565b500190565b6000826123665761236661242e565b500490565b60008282101561237d5761237d612418565b500390565b60005b8381101561239d578181015183820152602001612385565b83811115610a245750506000910152565b6002810460018216806123c257607f821691505b602082108114156123e357634e487b7160e01b600052602260045260246000fd5b50919050565b60006000198214156123fd576123fd612418565b5060010190565b6000826124135761241361242e565b500690565b634e487b7160e01b600052601160045260246000fd5b634e487b7160e01b600052601260045260246000fd5b634e487b7160e01b600052604160045260246000fd5b6001600160e01b03198116811461069457600080fdfea2646970667358221220be851fdd84e83b92b5138441ae908a913576960b038aae62db15e050e1f5621b64736f6c63430008000033",
  "linkReferences": {},
  "deployedLinkReferences": {}
}